:0A0000008316FF2390008312FB2BF0
:10042E008312850105080B108B15630000008312E3
:10043E0005080B108B1108008312A401A501201CC6
:10044E00292A2A2A302A2208A4070318A50A2308D3
:10045E00A50701300310A20DA30DFF3E031D312A87
:10046E0001300310A10CA00CFF3E031D382A2008FA
:10047E002104031D432A442A262A2508A100240804
:10048E00A00008008312AC002708A800A9012808C4
:10049E00A0002908A1006430A2000030A30023228E
:1004AE0083122108AB002008AA00AD01AE01712A0B
:1004BE003230A0002C087D22003A0319672A682AE0
:1004CE006A2A01307C2A01308312AD070318AE0A66
:1004DE000030AE072B082E02031D772A2A082D02A4
:1004EE00031C7A2A7B2A5F2A003008008312A3009D
:1004FE00A60120082602031C852A862A892AA40121
:10050E00A501902A2308A100A2012108A400220817
:10051E00A500240885004230A100A10B942A0000FA
:10052E0001308312A60732302602031C9F2AA02A0E
:10053E00802A85018519A42AA52AB02A0130B6077A
:10054E0003303602031CAC2AAD2AB12AB6010130A3
:10055E00B22AB601003008008312B2003208A7009A
:10056E000130ED22003A0319BD2ABE2AC02A0130FD
:10057E00EC2A83122F080319C52AC62AD02A2F085F
:10058E00A70004304922003A0319CE2ACF2AD02AD6
:10059E00BE2A83123008A7000230ED22003A03195A
:1005AE00D92ADA2ADB2ABE2A831231080319E02A55
:1005BE00E12AEB2A3108A70004304922003A031938
:1005CE00E92AEA2AEB2ABE2A003008008312AA0082
:1005DE002708AB00AC01A801022B2C08A0002A08AA
:1005EE007D22003A0319FC2AFD2AFF2A0130302B06
:1005FE0001308312A8072B082802031C072B082B97
:10060E00F42A0130AC0732302C02031C0F2B102BB6
:10061E00F22A3230AD00A901222B2D08FF3EA00098
:10062E002A087D22003A03191D2B1E2B1F2BFD2A93
:10063E0001308312A9072B082902031C272B282B14
:10064E00142B0130AD022D08031D2E2B2F2B122B38
:10065E00003008008312A501A31F362B372B3E2B2B
:10066E00A209A309A20A0319A30A0130A500A11F1A
:10067E00412B422B472BA009A109A00A0319A10A5D
:10068E002008210403194C2B4D2B7A2B0130A4008A
:10069E00592B01300310A00DA10DFF3E031D512B50
:1006AE000130A407A11F5C2B5D2B502B21082302C8
:1006BE00031D632B20082202031C662B672B6D2B58
:1006CE002008A2022108031CA303A3020130031079
:1006DE00A10CA00CFF3E031D6E2B0130A402031DC6
:1006EE00792B7A2B5D2B250803197E2B7F2B842BE0
:1006FE00A209A309A20A0319A30A2308A10022082A
:10070E00A000080083169F01083085008312850122
:10071E00B501CA2B8312AF010430B000B101043011
:10072E00B322003A03199C2B9D2B912BDB2B8312AA
:10073E00AF010630B000B1010630B322003A031902
:10074E00A92BAA2B9E2BDB2B04308312AF00043077
:10075E00B0000430B1000430B322003A0319B82BB4
:10076E00B92BAB2BDB2B07308312AF000830B00058
:10077E00B1010430B322003A0319C62BC72BBA2B92
:10078E00DB2B1722DB2B3508003A0319912B013A8C
:10079E0003199E2B033A0319AB2B013A0319BA2BFB
:1007AE00073A0319C82BDB2B8312851DDF2BE02B99
:1007BE00DB2B4130B400EE30B300B30BE42BB40BA3
:1007CE00E42B000005308312A0000030A100350894
:1007DE00013EA200003003180130A3003123831222
:1007EE002008B500CA2B00288312B6018301892B7D
:02400E00C431BB
:00000001FF
